{
  "contractName": "MemoryContract",
  "abi": [
    {
      "constant": true,
      "inputs": [
        {
          "name": "",
          "type": "uint256"
        }
      ],
      "name": "memoryHashMapping",
      "outputs": [
        {
          "name": "sender",
          "type": "address"
        },
        {
          "name": "hashValue",
          "type": "string"
        },
        {
          "name": "creationTimestamp",
          "type": "uint256"
        }
      ],
      "payable": false,
      "stateMutability": "view",
      "type": "function"
    },
    {
      "constant": true,
      "inputs": [],
      "name": "owner",
      "outputs": [
        {
          "name": "",
          "type": "address"
        }
      ],
      "payable": false,
      "stateMutability": "view",
      "type": "function"
    },
    {
      "constant": true,
      "inputs": [],
      "name": "price",
      "outputs": [
        {
          "name": "",
          "type": "uint256"
        }
      ],
      "payable": false,
      "stateMutability": "view",
      "type": "function"
    },
    {
      "constant": true,
      "inputs": [],
      "name": "submissionIndex",
      "outputs": [
        {
          "name": "",
          "type": "uint256"
        }
      ],
      "payable": false,
      "stateMutability": "view",
      "type": "function"
    },
    {
      "inputs": [
        {
          "name": "_price",
          "type": "uint256"
        }
      ],
      "payable": false,
      "stateMutability": "nonpayable",
      "type": "constructor"
    },
    {
      "anonymous": false,
      "inputs": [
        {
          "indexed": false,
          "name": "sender",
          "type": "address"
        },
        {
          "indexed": false,
          "name": "submissionId",
          "type": "uint256"
        },
        {
          "indexed": false,
          "name": "hashValue",
          "type": "string"
        },
        {
          "indexed": false,
          "name": "creationTimestamp",
          "type": "uint256"
        }
      ],
      "name": "MemoryEtched",
      "type": "event"
    },
    {
      "constant": false,
      "inputs": [
        {
          "name": "hashOfContent",
          "type": "string"
        }
      ],
      "name": "addMemory",
      "outputs": [],
      "payable": true,
      "stateMutability": "payable",
      "type": "function"
    },
    {
      "constant": true,
      "inputs": [
        {
          "name": "submissionId",
          "type": "uint256"
        }
      ],
      "name": "findMemory",
      "outputs": [
        {
          "name": "sender",
          "type": "address"
        },
        {
          "name": "hashValue",
          "type": "string"
        },
        {
          "name": "timestamp",
          "type": "uint256"
        }
      ],
      "payable": false,
      "stateMutability": "view",
      "type": "function"
    }
  ],
  "bytecode": "0x6060604052341561000f57600080fd5b60405160208061081c83398101604052808051906020019091905050336000806101000a81548173ffffffffffffffffffffffffffffffffffffffff021916908373ffffffffffffffffffffffffffffffffffffffff16021790555060008111151561007a57600080fd5b80600181905550600060028190555050610783806100996000396000f300606060405260043610610078576000357c0100000000000000000000000000000000000000000000000000000000900463ffffffff16806322f342221461007d578063434b3e56146101705780637d45696e146102465780638da5cb5b14610298578063a035b1fe146102ed578063b8a409ac14610316575b600080fd5b341561008857600080fd5b61009e600480803590602001909190505061033f565b604051808473ffffffffffffffffffffffffffffffffffffffff1673ffffffffffffffffffffffffffffffffffffffff1681526020018060200183815260200182810382528481815460018160011615610100020316600290048152602001915080546001816001161561010002031660029004801561015f5780601f106101345761010080835404028352916020019161015f565b820191906000526020600020905b81548152906001019060200180831161014257829003601f168201915b505094505050505060405180910390f35b341561017b57600080fd5b6101916004808035906020019091905050610388565b604051808473ffffffffffffffffffffffffffffffffffffffff1673ffffffffffffffffffffffffffffffffffffffff16815260200180602001838152602001828103825284818151815260200191508051906020019080838360005b838110156102095780820151818401526020810190506101ee565b50505050905090810190601f1680156102365780820380516001836020036101000a031916815260200191505b5094505050505060405180910390f35b610296600480803590602001908201803590602001908080601f016020809104026020016040519081016040528093929190818152602001838380828437820191505050505050919050506104b2565b005b34156102a357600080fd5b6102ab61066d565b604051808273ffffffffffffffffffffffffffffffffffffffff1673ffffffffffffffffffffffffffffffffffffffff16815260200191505060405180910390f35b34156102f857600080fd5b610300610692565b6040518082815260200191505060405180910390f35b341561032157600080fd5b610329610698565b6040518082815260200191505060405180910390f35b60036020528060005260406000206000915090508060000160009054906101000a900473ffffffffffffffffffffffffffffffffffffffff169080600101908060020154905083565b600061039261069e565b600060025484111515156103a557600080fd5b6003600085815260200190815260200160002060000160009054906101000a900473ffffffffffffffffffffffffffffffffffffffff16600360008681526020019081526020016000206001016003600087815260200190815260200160002060020154818054600181600116156101000203166002900480601f01602080910402602001604051908101604052809291908181526020018280546001816001161561010002031660029004801561049e5780601f106104735761010080835404028352916020019161049e565b820191906000526020600020905b81548152906001019060200180831161048157829003601f168201915b505050505091509250925092509193909250565b60006001548034101515156104c657600080fd5b6002600081546001019190508190559150336003600084815260200190815260200160002060000160006101000a81548173ffffffffffffffffffffffffffffffffffffffff021916908373ffffffffffffffffffffffffffffffffffffffff160217905550826003600084815260200190815260200160002060010190805190602001906105569291906106b2565b504260036000848152602001908152602001600020600201819055507fdeffaf556853874410171b95b4985425e35dafdd974b9bb1690e40a84c8bc2553383856003600087815260200190815260200160002060020154604051808573ffffffffffffffffffffffffffffffffffffffff1673ffffffffffffffffffffffffffffffffffffffff16815260200184815260200180602001838152602001828103825284818151815260200191508051906020019080838360005b8381101561062b578082015181840152602081019050610610565b50505050905090810190601f1680156106585780820380516001836020036101000a031916815260200191505b509550505050505060405180910390a1505050565b6000809054906101000a900473ffffffffffffffffffffffffffffffffffffffff1681565b60015481565b60025481565b602060405190810160405280600081525090565b828054600181600116156101000203166002900490600052602060002090601f016020900481019282601f106106f357805160ff1916838001178555610721565b82800160010185558215610721579182015b82811115610720578251825591602001919060010190610705565b5b50905061072e9190610732565b5090565b61075491905b80821115610750576000816000905550600101610738565b5090565b905600a165627a7a72305820c4b57a0c0c8b97dd976ad3368900cd9e918194e753a0fc088adbc2d34d53406a0029",
  "source": "/**\r\n * Dapp allows users to etch words for eternity in blockchain\r\n *\r\n * @description MemoryPolicy contract.\r\n * @notice All function calls to the contract require 0.001 ETH\r\n * @copyright (c) 2018 Furqan Shaikh\r\n * @author Furqan Shaikh\r\n */\r\n\r\npragma solidity ^0.4.17;\r\n\r\nimport \"./Owned.sol\";\r\nimport \"./Priced.sol\";\r\n\r\ncontract MemoryContract is Owned, Priced {\r\n    /**\r\n      Events declarations\r\n    */\r\n    event MemoryEtched(address sender,uint submissionId,string hashValue,uint creationTimestamp);\r\n\r\n    /**\r\n        Custom data types - struct declarations\r\n     */\r\n     struct MemoryHash {\r\n         // Sender of the memory content\r\n         address sender;\r\n         // Hash of the content\r\n         string hashValue;\r\n         // Creation timestamp\r\n         uint creationTimestamp;\r\n     }\r\n\r\n    /**\r\n    *     Contract state variables go here\r\n    **/\r\n    // Price for executing transactions on the contract\r\n    uint public price;\r\n    // Stores the submision index\r\n    uint public submissionIndex;\r\n    // Mapping to store submission index and its corresponding hash\r\n    mapping(uint => MemoryHash) public memoryHashMapping;\r\n\r\n    /*\r\n    *  Constructor\r\n    * @param _price - Price in ether\r\n    */\r\n    function MemoryContract(uint _price) public {\r\n        // Ensure the price is set correctly\r\n        require(_price > 0);\r\n        // set the price\r\n        price = _price;\r\n        submissionIndex = 0;\r\n    }\r\n\r\n    /*\r\n    *  Public functions\r\n    */\r\n\r\n    /**\r\n    @notice - Saves the content hash into contract state mapping. Raises the event to allow client(front end, etc) to take\r\n    appropriate action\r\n     */\r\n     function addMemory(string hashOfContent) payable public enforcePrice(price) {\r\n         uint submissionId = ++submissionIndex;\r\n         memoryHashMapping[submissionId].sender = msg.sender;\r\n         memoryHashMapping[submissionId].hashValue = hashOfContent;\r\n         memoryHashMapping[submissionId].creationTimestamp = block.timestamp;\r\n\r\n         // Trigger the event so :\r\n         // 1. Gets logged in transaction logs\r\n         // 2. Front end can get notified\r\n         MemoryEtched(msg.sender,submissionId,hashOfContent,memoryHashMapping[submissionId].creationTimestamp);\r\n     }\r\n\r\n     /**\r\n     @notice Returns the HashMemory corresponding to the passed in submission Id\r\n     @param submissionId - Submission Id returned in call to addMemory\r\n     */\r\n     function findMemory(uint submissionId) public view returns(address sender,string hashValue,uint timestamp) {\r\n         require(submissionId <= submissionIndex);\r\n         return (\r\n                 memoryHashMapping[submissionId].sender,\r\n                 memoryHashMapping[submissionId].hashValue,\r\n                 memoryHashMapping[submissionId].creationTimestamp\r\n                );\r\n     }\r\n}",
  "sourcePath": "C:\\Development\\Playground\\Blockchain\\MemoryDapp\\Code\\Smart Contracts\\contracts\\MemoryContract.sol",
  "compiler": {
    "name": "solc",
    "version": "0.4.19+commit.c4cbbb05.Emscripten.clang"
  },
  "schemaVersion": "2.0.0",
  "updatedAt": "2018-03-20T05:52:30.986Z"
}